{
  "_format": "hh-sol-artifact-1",
  "contractName": "NFTMarket",
  "sourceName": "contracts/NFTMarket.sol",
  "abi": [
    {
      "inputs": [],
      "stateMutability": "nonpayable",
      "type": "constructor"
    },
    {
      "anonymous": false,
      "inputs": [
        {
          "indexed": true,
          "internalType": "address",
          "name": "owner",
          "type": "address"
        },
        {
          "indexed": true,
          "internalType": "address",
          "name": "approved",
          "type": "address"
        },
        {
          "indexed": true,
          "internalType": "uint256",
          "name": "tokenId",
          "type": "uint256"
        }
      ],
      "name": "Approval",
      "type": "event"
    },
    {
      "anonymous": false,
      "inputs": [
        {
          "indexed": true,
          "internalType": "address",
          "name": "owner",
          "type": "address"
        },
        {
          "indexed": true,
          "internalType": "address",
          "name": "operator",
          "type": "address"
        },
        {
          "indexed": false,
          "internalType": "bool",
          "name": "approved",
          "type": "bool"
        }
      ],
      "name": "ApprovalForAll",
      "type": "event"
    },
    {
      "anonymous": false,
      "inputs": [
        {
          "indexed": true,
          "internalType": "uint256",
          "name": "tokenId",
          "type": "uint256"
        },
        {
          "indexed": false,
          "internalType": "address",
          "name": "creator",
          "type": "address"
        },
        {
          "indexed": false,
          "internalType": "address",
          "name": "seller",
          "type": "address"
        },
        {
          "indexed": false,
          "internalType": "address",
          "name": "currentowner",
          "type": "address"
        },
        {
          "indexed": false,
          "internalType": "uint256",
          "name": "buynowprice",
          "type": "uint256"
        },
        {
          "indexed": false,
          "internalType": "bool",
          "name": "sold",
          "type": "bool"
        },
        {
          "indexed": false,
          "internalType": "uint256",
          "name": "creatorRoyalty",
          "type": "uint256"
        },
        {
          "indexed": false,
          "internalType": "uint256",
          "name": "startDate",
          "type": "uint256"
        },
        {
          "indexed": false,
          "internalType": "bool",
          "name": "inauction",
          "type": "bool"
        },
        {
          "indexed": false,
          "internalType": "uint256",
          "name": "highestBindingBid",
          "type": "uint256"
        },
        {
          "indexed": false,
          "internalType": "address",
          "name": "highestBidder",
          "type": "address"
        }
      ],
      "name": "MarketItemCreated",
      "type": "event"
    },
    {
      "anonymous": false,
      "inputs": [
        {
          "indexed": true,
          "internalType": "address",
          "name": "from",
          "type": "address"
        },
        {
          "indexed": true,
          "internalType": "address",
          "name": "to",
          "type": "address"
        },
        {
          "indexed": true,
          "internalType": "uint256",
          "name": "tokenId",
          "type": "uint256"
        }
      ],
      "name": "Transfer",
      "type": "event"
    },
    {
      "inputs": [],
      "name": "AuctionsCleanUp",
      "outputs": [
        {
          "internalType": "bool",
          "name": "",
          "type": "bool"
        }
      ],
      "stateMutability": "nonpayable",
      "type": "function"
    },
    {
      "inputs": [
        {
          "internalType": "address",
          "name": "to",
          "type": "address"
        },
        {
          "internalType": "uint256",
          "name": "tokenId",
          "type": "uint256"
        }
      ],
      "name": "approve",
      "outputs": [],
      "stateMutability": "nonpayable",
      "type": "function"
    },
    {
      "inputs": [
        {
          "internalType": "address",
          "name": "owner",
          "type": "address"
        }
      ],
      "name": "balanceOf",
      "outputs": [
        {
          "internalType": "uint256",
          "name": "",
          "type": "uint256"
        }
      ],
      "stateMutability": "view",
      "type": "function"
    },
    {
      "inputs": [
        {
          "internalType": "uint256[]",
          "name": "ids",
          "type": "uint256[]"
        }
      ],
      "name": "cancelitem",
      "outputs": [],
      "stateMutability": "nonpayable",
      "type": "function"
    },
    {
      "inputs": [
        {
          "internalType": "uint256",
          "name": "tokenId",
          "type": "uint256"
        }
      ],
      "name": "createMarketSale",
      "outputs": [],
      "stateMutability": "payable",
      "type": "function"
    },
    {
      "inputs": [
        {
          "internalType": "string",
          "name": "tokenURI",
          "type": "string"
        },
        {
          "internalType": "uint256",
          "name": "buyprice",
          "type": "uint256"
        },
        {
          "internalType": "uint256",
          "name": "royalty",
          "type": "uint256"
        },
        {
          "internalType": "uint256",
          "name": "aucprice",
          "type": "uint256"
        },
        {
          "internalType": "bool",
          "name": "startauc",
          "type": "bool"
        }
      ],
      "name": "createToken",
      "outputs": [
        {
          "internalType": "uint256",
          "name": "",
          "type": "uint256"
        }
      ],
      "stateMutability": "payable",
      "type": "function"
    },
    {
      "inputs": [
        {
          "internalType": "uint256",
          "name": "thisItemId",
          "type": "uint256"
        }
      ],
      "name": "fetchIndividualCreatorItems",
      "outputs": [
        {
          "components": [
            {
              "internalType": "uint256",
              "name": "tokenId",
              "type": "uint256"
            },
            {
              "internalType": "address payable",
              "name": "creator",
              "type": "address"
            },
            {
              "internalType": "address payable",
              "name": "seller",
              "type": "address"
            },
            {
              "internalType": "address payable",
              "name": "currentowner",
              "type": "address"
            },
            {
              "internalType": "uint256",
              "name": "buynowprice",
              "type": "uint256"
            },
            {
              "internalType": "bool",
              "name": "sold",
              "type": "bool"
            },
            {
              "internalType": "uint256",
              "name": "creatorRoyalty",
              "type": "uint256"
            },
            {
              "internalType": "uint256",
              "name": "startDate",
              "type": "uint256"
            },
            {
              "internalType": "bool",
              "name": "inauction",
              "type": "bool"
            },
            {
              "internalType": "uint256",
              "name": "highestBindingBid",
              "type": "uint256"
            },
            {
              "internalType": "address",
              "name": "highestBidder",
              "type": "address"
            }
          ],
          "internalType": "struct NFTMarket.MarketItem[]",
          "name": "",
          "type": "tuple[]"
        }
      ],
      "stateMutability": "view",
      "type": "function"
    },
    {
      "inputs": [
        {
          "internalType": "uint256",
          "name": "thisItemId",
          "type": "uint256"
        }
      ],
      "name": "fetchIndividualItem",
      "outputs": [
        {
          "components": [
            {
              "internalType": "uint256",
              "name": "tokenId",
              "type": "uint256"
            },
            {
              "internalType": "address payable",
              "name": "creator",
              "type": "address"
            },
            {
              "internalType": "address payable",
              "name": "seller",
              "type": "address"
            },
            {
              "internalType": "address payable",
              "name": "currentowner",
              "type": "address"
            },
            {
              "internalType": "uint256",
              "name": "buynowprice",
              "type": "uint256"
            },
            {
              "internalType": "bool",
              "name": "sold",
              "type": "bool"
            },
            {
              "internalType": "uint256",
              "name": "creatorRoyalty",
              "type": "uint256"
            },
            {
              "internalType": "uint256",
              "name": "startDate",
              "type": "uint256"
            },
            {
              "internalType": "bool",
              "name": "inauction",
              "type": "bool"
            },
            {
              "internalType": "uint256",
              "name": "highestBindingBid",
              "type": "uint256"
            },
            {
              "internalType": "address",
              "name": "highestBidder",
              "type": "address"
            }
          ],
          "internalType": "struct NFTMarket.MarketItem[]",
          "name": "",
          "type": "tuple[]"
        }
      ],
      "stateMutability": "view",
      "type": "function"
    },
    {
      "inputs": [],
      "name": "fetchItemsCreated",
      "outputs": [
        {
          "components": [
            {
              "internalType": "uint256",
              "name": "tokenId",
              "type": "uint256"
            },
            {
              "internalType": "address payable",
              "name": "creator",
              "type": "address"
            },
            {
              "internalType": "address payable",
              "name": "seller",
              "type": "address"
            },
            {
              "internalType": "address payable",
              "name": "currentowner",
              "type": "address"
            },
            {
              "internalType": "uint256",
              "name": "buynowprice",
              "type": "uint256"
            },
            {
              "internalType": "bool",
              "name": "sold",
              "type": "bool"
            },
            {
              "internalType": "uint256",
              "name": "creatorRoyalty",
              "type": "uint256"
            },
            {
              "internalType": "uint256",
              "name": "startDate",
              "type": "uint256"
            },
            {
              "internalType": "bool",
              "name": "inauction",
              "type": "bool"
            },
            {
              "internalType": "uint256",
              "name": "highestBindingBid",
              "type": "uint256"
            },
            {
              "internalType": "address",
              "name": "highestBidder",
              "type": "address"
            }
          ],
          "internalType": "struct NFTMarket.MarketItem[]",
          "name": "",
          "type": "tuple[]"
        }
      ],
      "stateMutability": "view",
      "type": "function"
    },
    {
      "inputs": [],
      "name": "fetchMarketItems",
      "outputs": [
        {
          "components": [
            {
              "internalType": "uint256",
              "name": "tokenId",
              "type": "uint256"
            },
            {
              "internalType": "address payable",
              "name": "creator",
              "type": "address"
            },
            {
              "internalType": "address payable",
              "name": "seller",
              "type": "address"
            },
            {
              "internalType": "address payable",
              "name": "currentowner",
              "type": "address"
            },
            {
              "internalType": "uint256",
              "name": "buynowprice",
              "type": "uint256"
            },
            {
              "internalType": "bool",
              "name": "sold",
              "type": "bool"
            },
            {
              "internalType": "uint256",
              "name": "creatorRoyalty",
              "type": "uint256"
            },
            {
              "internalType": "uint256",
              "name": "startDate",
              "type": "uint256"
            },
            {
              "internalType": "bool",
              "name": "inauction",
              "type": "bool"
            },
            {
              "internalType": "uint256",
              "name": "highestBindingBid",
              "type": "uint256"
            },
            {
              "internalType": "address",
              "name": "highestBidder",
              "type": "address"
            }
          ],
          "internalType": "struct NFTMarket.MarketItem[]",
          "name": "",
          "type": "tuple[]"
        }
      ],
      "stateMutability": "view",
      "type": "function"
    },
    {
      "inputs": [],
      "name": "fetchMyNFTs",
      "outputs": [
        {
          "components": [
            {
              "internalType": "uint256",
              "name": "tokenId",
              "type": "uint256"
            },
            {
              "internalType": "address payable",
              "name": "creator",
              "type": "address"
            },
            {
              "internalType": "address payable",
              "name": "seller",
              "type": "address"
            },
            {
              "internalType": "address payable",
              "name": "currentowner",
              "type": "address"
            },
            {
              "internalType": "uint256",
              "name": "buynowprice",
              "type": "uint256"
            },
            {
              "internalType": "bool",
              "name": "sold",
              "type": "bool"
            },
            {
              "internalType": "uint256",
              "name": "creatorRoyalty",
              "type": "uint256"
            },
            {
              "internalType": "uint256",
              "name": "startDate",
              "type": "uint256"
            },
            {
              "internalType": "bool",
              "name": "inauction",
              "type": "bool"
            },
            {
              "internalType": "uint256",
              "name": "highestBindingBid",
              "type": "uint256"
            },
            {
              "internalType": "address",
              "name": "highestBidder",
              "type": "address"
            }
          ],
          "internalType": "struct NFTMarket.MarketItem[]",
          "name": "",
          "type": "tuple[]"
        }
      ],
      "stateMutability": "view",
      "type": "function"
    },
    {
      "inputs": [],
      "name": "fetchcancelleditems",
      "outputs": [
        {
          "components": [
            {
              "internalType": "uint256",
              "name": "tokenId",
              "type": "uint256"
            },
            {
              "internalType": "address payable",
              "name": "creator",
              "type": "address"
            },
            {
              "internalType": "address payable",
              "name": "seller",
              "type": "address"
            },
            {
              "internalType": "address payable",
              "name": "currentowner",
              "type": "address"
            },
            {
              "internalType": "uint256",
              "name": "buynowprice",
              "type": "uint256"
            },
            {
              "internalType": "bool",
              "name": "sold",
              "type": "bool"
            },
            {
              "internalType": "uint256",
              "name": "creatorRoyalty",
              "type": "uint256"
            },
            {
              "internalType": "uint256",
              "name": "startDate",
              "type": "uint256"
            },
            {
              "internalType": "bool",
              "name": "inauction",
              "type": "bool"
            },
            {
              "internalType": "uint256",
              "name": "highestBindingBid",
              "type": "uint256"
            },
            {
              "internalType": "address",
              "name": "highestBidder",
              "type": "address"
            }
          ],
          "internalType": "struct NFTMarket.MarketItem[]",
          "name": "",
          "type": "tuple[]"
        }
      ],
      "stateMutability": "view",
      "type": "function"
    },
    {
      "inputs": [
        {
          "internalType": "uint256",
          "name": "tokenId",
          "type": "uint256"
        }
      ],
      "name": "finalizeAuction",
      "outputs": [],
      "stateMutability": "payable",
      "type": "function"
    },
    {
      "inputs": [
        {
          "internalType": "uint256",
          "name": "tokenId",
          "type": "uint256"
        }
      ],
      "name": "getApproved",
      "outputs": [
        {
          "internalType": "address",
          "name": "",
          "type": "address"
        }
      ],
      "stateMutability": "view",
      "type": "function"
    },
    {
      "inputs": [],
      "name": "getFullMarketBalance",
      "outputs": [
        {
          "internalType": "uint256",
          "name": "",
          "type": "uint256"
        }
      ],
      "stateMutability": "view",
      "type": "function"
    },
    {
      "inputs": [],
      "name": "getListingPrice",
      "outputs": [
        {
          "internalType": "uint256",
          "name": "",
          "type": "uint256"
        }
      ],
      "stateMutability": "view",
      "type": "function"
    },
    {
      "inputs": [],
      "name": "getMarketContractOwner",
      "outputs": [
        {
          "internalType": "address",
          "name": "",
          "type": "address"
        }
      ],
      "stateMutability": "view",
      "type": "function"
    },
    {
      "inputs": [],
      "name": "getMarketEnablement",
      "outputs": [
        {
          "internalType": "uint256",
          "name": "",
          "type": "uint256"
        }
      ],
      "stateMutability": "view",
      "type": "function"
    },
    {
      "inputs": [],
      "name": "getMarketWallet",
      "outputs": [
        {
          "internalType": "address",
          "name": "",
          "type": "address"
        }
      ],
      "stateMutability": "view",
      "type": "function"
    },
    {
      "inputs": [],
      "name": "getMaxBlocks",
      "outputs": [
        {
          "internalType": "uint256",
          "name": "",
          "type": "uint256"
        }
      ],
      "stateMutability": "view",
      "type": "function"
    },
    {
      "inputs": [
        {
          "internalType": "uint256",
          "name": "thisitemId",
          "type": "uint256"
        }
      ],
      "name": "getRoyaltyAmount",
      "outputs": [
        {
          "internalType": "uint256",
          "name": "",
          "type": "uint256"
        }
      ],
      "stateMutability": "view",
      "type": "function"
    },
    {
      "inputs": [],
      "name": "getWithdrawBalance",
      "outputs": [
        {
          "internalType": "uint256",
          "name": "",
          "type": "uint256"
        }
      ],
      "stateMutability": "view",
      "type": "function"
    },
    {
      "inputs": [
        {
          "internalType": "uint256",
          "name": "itemitemId",
          "type": "uint256"
        }
      ],
      "name": "getbids",
      "outputs": [
        {
          "internalType": "uint256",
          "name": "",
          "type": "uint256"
        }
      ],
      "stateMutability": "view",
      "type": "function"
    },
    {
      "inputs": [
        {
          "internalType": "uint256",
          "name": "tokenId",
          "type": "uint256"
        }
      ],
      "name": "getcreatorvalue",
      "outputs": [
        {
          "internalType": "uint256",
          "name": "",
          "type": "uint256"
        }
      ],
      "stateMutability": "view",
      "type": "function"
    },
    {
      "inputs": [
        {
          "internalType": "uint256",
          "name": "tokenId",
          "type": "uint256"
        }
      ],
      "name": "getenablevalue",
      "outputs": [
        {
          "internalType": "uint256",
          "name": "",
          "type": "uint256"
        }
      ],
      "stateMutability": "view",
      "type": "function"
    },
    {
      "inputs": [
        {
          "internalType": "uint256",
          "name": "thisItemId",
          "type": "uint256"
        }
      ],
      "name": "gethighestBidder",
      "outputs": [
        {
          "internalType": "address",
          "name": "",
          "type": "address"
        }
      ],
      "stateMutability": "view",
      "type": "function"
    },
    {
      "inputs": [
        {
          "internalType": "uint256",
          "name": "thisItemId",
          "type": "uint256"
        }
      ],
      "name": "gethighestBindingBid",
      "outputs": [
        {
          "internalType": "uint256",
          "name": "",
          "type": "uint256"
        }
      ],
      "stateMutability": "view",
      "type": "function"
    },
    {
      "inputs": [],
      "name": "getitemcount",
      "outputs": [
        {
          "internalType": "uint256",
          "name": "",
          "type": "uint256"
        }
      ],
      "stateMutability": "view",
      "type": "function"
    },
    {
      "inputs": [],
      "name": "getmybids",
      "outputs": [
        {
          "components": [
            {
              "internalType": "uint256",
              "name": "tokenId",
              "type": "uint256"
            },
            {
              "internalType": "address payable",
              "name": "creator",
              "type": "address"
            },
            {
              "internalType": "address payable",
              "name": "seller",
              "type": "address"
            },
            {
              "internalType": "address payable",
              "name": "currentowner",
              "type": "address"
            },
            {
              "internalType": "uint256",
              "name": "buynowprice",
              "type": "uint256"
            },
            {
              "internalType": "bool",
              "name": "sold",
              "type": "bool"
            },
            {
              "internalType": "uint256",
              "name": "creatorRoyalty",
              "type": "uint256"
            },
            {
              "internalType": "uint256",
              "name": "startDate",
              "type": "uint256"
            },
            {
              "internalType": "bool",
              "name": "inauction",
              "type": "bool"
            },
            {
              "internalType": "uint256",
              "name": "highestBindingBid",
              "type": "uint256"
            },
            {
              "internalType": "address",
              "name": "highestBidder",
              "type": "address"
            }
          ],
          "internalType": "struct NFTMarket.MarketItem[]",
          "name": "",
          "type": "tuple[]"
        }
      ],
      "stateMutability": "view",
      "type": "function"
    },
    {
      "inputs": [
        {
          "internalType": "uint256",
          "name": "tokenId",
          "type": "uint256"
        }
      ],
      "name": "getsellervalue",
      "outputs": [
        {
          "internalType": "uint256",
          "name": "",
          "type": "uint256"
        }
      ],
      "stateMutability": "view",
      "type": "function"
    },
    {
      "inputs": [],
      "name": "getunsoldcount",
      "outputs": [
        {
          "internalType": "uint256",
          "name": "",
          "type": "uint256"
        }
      ],
      "stateMutability": "view",
      "type": "function"
    },
    {
      "inputs": [],
      "name": "isActive",
      "outputs": [
        {
          "internalType": "bool",
          "name": "",
          "type": "bool"
        }
      ],
      "stateMutability": "view",
      "type": "function"
    },
    {
      "inputs": [
        {
          "internalType": "address",
          "name": "owner",
          "type": "address"
        },
        {
          "internalType": "address",
          "name": "operator",
          "type": "address"
        }
      ],
      "name": "isApprovedForAll",
      "outputs": [
        {
          "internalType": "bool",
          "name": "",
          "type": "bool"
        }
      ],
      "stateMutability": "view",
      "type": "function"
    },
    {
      "inputs": [],
      "name": "name",
      "outputs": [
        {
          "internalType": "string",
          "name": "",
          "type": "string"
        }
      ],
      "stateMutability": "view",
      "type": "function"
    },
    {
      "inputs": [
        {
          "internalType": "uint256",
          "name": "tokenId",
          "type": "uint256"
        }
      ],
      "name": "ownerOf",
      "outputs": [
        {
          "internalType": "address",
          "name": "",
          "type": "address"
        }
      ],
      "stateMutability": "view",
      "type": "function"
    },
    {
      "inputs": [
        {
          "internalType": "uint256",
          "name": "thisitemId",
          "type": "uint256"
        }
      ],
      "name": "placeBid",
      "outputs": [],
      "stateMutability": "payable",
      "type": "function"
    },
    {
      "inputs": [],
      "name": "pushedtoMumbai",
      "outputs": [
        {
          "internalType": "uint256",
          "name": "",
          "type": "uint256"
        }
      ],
      "stateMutability": "pure",
      "type": "function"
    },
    {
      "inputs": [
        {
          "internalType": "uint256",
          "name": "tokenId",
          "type": "uint256"
        },
        {
          "internalType": "uint256",
          "name": "buynowprice",
          "type": "uint256"
        },
        {
          "internalType": "uint256",
          "name": "auctionstartprice",
          "type": "uint256"
        },
        {
          "internalType": "bool",
          "name": "startauction",
          "type": "bool"
        }
      ],
      "name": "resellitem",
      "outputs": [],
      "stateMutability": "payable",
      "type": "function"
    },
    {
      "inputs": [
        {
          "internalType": "uint256",
          "name": "thisitemId",
          "type": "uint256"
        }
      ],
      "name": "returnBid",
      "outputs": [],
      "stateMutability": "nonpayable",
      "type": "function"
    },
    {
      "inputs": [
        {
          "internalType": "address",
          "name": "from",
          "type": "address"
        },
        {
          "internalType": "address",
          "name": "to",
          "type": "address"
        },
        {
          "internalType": "uint256",
          "name": "tokenId",
          "type": "uint256"
        }
      ],
      "name": "safeTransferFrom",
      "outputs": [],
      "stateMutability": "nonpayable",
      "type": "function"
    },
    {
      "inputs": [
        {
          "internalType": "address",
          "name": "from",
          "type": "address"
        },
        {
          "internalType": "address",
          "name": "to",
          "type": "address"
        },
        {
          "internalType": "uint256",
          "name": "tokenId",
          "type": "uint256"
        },
        {
          "internalType": "bytes",
          "name": "_data",
          "type": "bytes"
        }
      ],
      "name": "safeTransferFrom",
      "outputs": [],
      "stateMutability": "nonpayable",
      "type": "function"
    },
    {
      "inputs": [
        {
          "internalType": "uint256",
          "name": "tokenId",
          "type": "uint256"
        },
        {
          "internalType": "int256",
          "name": "integ",
          "type": "int256"
        }
      ],
      "name": "sendmoney",
      "outputs": [],
      "stateMutability": "nonpayable",
      "type": "function"
    },
    {
      "inputs": [
        {
          "internalType": "address",
          "name": "operator",
          "type": "address"
        },
        {
          "internalType": "bool",
          "name": "approved",
          "type": "bool"
        }
      ],
      "name": "setApprovalForAll",
      "outputs": [],
      "stateMutability": "nonpayable",
      "type": "function"
    },
    {
      "inputs": [
        {
          "internalType": "uint256",
          "name": "_newprice",
          "type": "uint256"
        }
      ],
      "name": "setListingPrice",
      "outputs": [],
      "stateMutability": "nonpayable",
      "type": "function"
    },
    {
      "inputs": [
        {
          "internalType": "uint256",
          "name": "_newenabler",
          "type": "uint256"
        }
      ],
      "name": "setMarketEnablement",
      "outputs": [],
      "stateMutability": "nonpayable",
      "type": "function"
    },
    {
      "inputs": [
        {
          "internalType": "address",
          "name": "_newwallet",
          "type": "address"
        }
      ],
      "name": "setMarketWallet",
      "outputs": [],
      "stateMutability": "nonpayable",
      "type": "function"
    },
    {
      "inputs": [
        {
          "internalType": "uint256",
          "name": "_newlimit",
          "type": "uint256"
        }
      ],
      "name": "setMaxBlocks",
      "outputs": [],
      "stateMutability": "nonpayable",
      "type": "function"
    },
    {
      "inputs": [
        {
          "internalType": "bytes4",
          "name": "interfaceId",
          "type": "bytes4"
        }
      ],
      "name": "supportsInterface",
      "outputs": [
        {
          "internalType": "bool",
          "name": "",
          "type": "bool"
        }
      ],
      "stateMutability": "view",
      "type": "function"
    },
    {
      "inputs": [],
      "name": "symbol",
      "outputs": [
        {
          "internalType": "string",
          "name": "",
          "type": "string"
        }
      ],
      "stateMutability": "view",
      "type": "function"
    },
    {
      "inputs": [
        {
          "internalType": "uint256",
          "name": "thisId",
          "type": "uint256"
        }
      ],
      "name": "testmaxblocks",
      "outputs": [
        {
          "internalType": "uint256",
          "name": "",
          "type": "uint256"
        }
      ],
      "stateMutability": "view",
      "type": "function"
    },
    {
      "inputs": [
        {
          "internalType": "uint256",
          "name": "thisId",
          "type": "uint256"
        }
      ],
      "name": "testmaxblocksconditional",
      "outputs": [
        {
          "internalType": "bool",
          "name": "",
          "type": "bool"
        }
      ],
      "stateMutability": "view",
      "type": "function"
    },
    {
      "inputs": [],
      "name": "toggleCircuitBreaker",
      "outputs": [],
      "stateMutability": "nonpayable",
      "type": "function"
    },
    {
      "inputs": [
        {
          "internalType": "uint256",
          "name": "tokenId",
          "type": "uint256"
        }
      ],
      "name": "tokenURI",
      "outputs": [
        {
          "internalType": "string",
          "name": "",
          "type": "string"
        }
      ],
      "stateMutability": "view",
      "type": "function"
    },
    {
      "inputs": [
        {
          "internalType": "address",
          "name": "from",
          "type": "address"
        },
        {
          "internalType": "address",
          "name": "to",
          "type": "address"
        },
        {
          "internalType": "uint256",
          "name": "tokenId",
          "type": "uint256"
        }
      ],
      "name": "transferFrom",
      "outputs": [],
      "stateMutability": "nonpayable",
      "type": "function"
    },
    {
      "inputs": [
        {
          "internalType": "uint256",
          "name": "tokenId",
          "type": "uint256"
        }
      ],
      "name": "turnOffAuction",
      "outputs": [],
      "stateMutability": "nonpayable",
      "type": "function"
    },
    {
      "inputs": [],
      "name": "withdraw",
      "outputs": [],
      "stateMutability": "nonpayable",
      "type": "function"
    }
  ],
  "bytecode": "0x6080604052600a805460ff191660011790556000600c55674563918244f40000600d556101f4600e5562101580600f553480156200003c57600080fd5b50604080518082018252600e81526d456e63616e746f20546f6b656e7360901b602080830191825283518085019094526004845263454e434160e01b9084015281519192916200008f91600091620000e2565b508051620000a5906001906020840190620000e2565b5050600160075550600a8054610100600160a81b03191633610100810291909117909155600b80546001600160a01b0319169091179055620001c5565b828054620000f09062000188565b90600052602060002090601f0160209004810192826200011457600085556200015f565b82601f106200012f57805160ff19168380011785556200015f565b828001600101855582156200015f579182015b828111156200015f57825182559160200191906001019062000142565b506200016d92915062000171565b5090565b5b808211156200016d576000815560010162000172565b600181811c908216806200019d57607f821691505b60208210811415620001bf57634e487b7160e01b600052602260045260246000fd5b50919050565b614b8180620001d56000396000f3fe60806040526004361061036b5760003560e01c806373908193116101c6578063b88d4fde116100f7578063df37628611610095578063e985e9c51161006f578063e985e9c514610996578063f064c32e146109df578063f0b5fe59146109f4578063f6955fac14610a0957600080fd5b8063df37628614610943578063e0a9311014610963578063e80838631461098357600080fd5b8063be9af536116100d1578063be9af536146108e6578063c87b56dd146108f9578063d0376f5714610919578063d5eb63cc1461092e57600080fd5b8063b88d4fde14610886578063b9cd87cf146108a6578063be5aaedf146108c657600080fd5b8063867f42d9116101645780639813a8c81161013e5780639813a8c81461081e5780639979ef4514610833578063a22cb46514610846578063ac3315e31461086657600080fd5b8063867f42d9146107c45780638f2d9f87146107f457806395d89b411461080957600080fd5b806379a77270116101a057806379a77270146107415780637c726b69146107615780637f00781f1461078157806380ba2801146107b157600080fd5b806373908193146106c8578063753e24b5146106e8578063788159d71461072157600080fd5b8063305c263b116102a05780635092515e1161023e5780636352211e116102185780636352211e1461065e57806370a082311461067e578063710fe6f81461069e5780637342eb48146106b357600080fd5b80635092515e146105fe578063543322661461061e57806357be48941461063e57600080fd5b80633ccfd60b1161027a5780633ccfd60b146105a157806340954000146105b657806342842e0e146105cb5780634f2d7d84146105eb57600080fd5b8063305c263b1461054357806333756d16146105635780633b99915d1461058357600080fd5b806312e855851161030d57806322f3e2d4116102e757806322f3e2d4146104c457806323b872dd146104de578063259bfd03146104fe57806329d462a01461052e57600080fd5b806312e855851461048557806315589bf11461049a578063202e3740146104af57600080fd5b8063081812fc11610349578063081812fc146103e6578063095ea7b31461041e5780630c5fecf5146104405780630f08efe01461046357600080fd5b806301ffc9a71461037057806302fb4766146103a557806306fdde03146103c4575b600080fd5b34801561037c57600080fd5b5061039061038b366004614265565b610a41565b60405190151581526020015b60405180910390f35b3480156103b157600080fd5b506107ef5b60405190815260200161039c565b3480156103d057600080fd5b506103d9610a93565b60405161039c91906142da565b3480156103f257600080fd5b506104066104013660046142ed565b610b25565b6040516001600160a01b03909116815260200161039c565b34801561042a57600080fd5b5061043e610439366004614322565b610bb2565b005b34801561044c57600080fd5b50600a5461010090046001600160a01b0316610406565b34801561046f57600080fd5b50610478610cc8565b60405161039c919061434c565b34801561049157600080fd5b50600d546103b6565b3480156104a657600080fd5b506103b6610e88565b3480156104bb57600080fd5b50610478610ea1565b3480156104d057600080fd5b50600a546103909060ff1681565b3480156104ea57600080fd5b5061043e6104f936600461440e565b61109f565b34801561050a57600080fd5b506103b66105193660046142ed565b60009081526010602052604090206006015490565b34801561053a57600080fd5b50600f546103b6565b34801561054f57600080fd5b5061043e61055e3660046142ed565b6110d0565b34801561056f57600080fd5b506103b661057e3660046142ed565b61118f565b34801561058f57600080fd5b50600b546001600160a01b0316610406565b3480156105ad57600080fd5b5061043e61122b565b3480156105c257600080fd5b50610478611295565b3480156105d757600080fd5b5061043e6105e636600461440e565b61142a565b61043e6105f936600461445a565b611445565b34801561060a57600080fd5b5061043e6106193660046142ed565b611652565b34801561062a57600080fd5b5061043e610639366004614499565b611673565b34801561064a57600080fd5b5061043e6106593660046144fb565b6116b1565b34801561066a57600080fd5b506104066106793660046142ed565b611880565b34801561068a57600080fd5b506103b6610699366004614499565b6118f7565b3480156106aa57600080fd5b506103b661197e565b3480156106bf57600080fd5b506103b66119a4565b3480156106d457600080fd5b506103b66106e33660046142ed565b6119c8565b3480156106f457600080fd5b506104066107033660046142ed565b6000908152601060205260409020600a01546001600160a01b031690565b34801561072d57600080fd5b5061047861073c3660046142ed565b611a63565b34801561074d57600080fd5b5061043e61075c3660046142ed565b611cf5565b34801561076d57600080fd5b5061043e61077c3660046142ed565b611d16565b34801561078d57600080fd5b506103b661079c3660046142ed565b60009081526010602052604090206009015490565b6103b66107bf3660046145f9565b611d37565b3480156107d057600080fd5b506103b66107df3660046142ed565b60009081526010602052604090206007015490565b34801561080057600080fd5b50610478611d94565b34801561081557600080fd5b506103d9611fae565b34801561082a57600080fd5b506103b6611fbd565b61043e6108413660046142ed565b611fc9565b34801561085257600080fd5b5061043e610861366004614678565b612197565b34801561087257600080fd5b506104786108813660046142ed565b6121a6565b34801561089257600080fd5b5061043e6108a13660046146ab565b6122a3565b3480156108b257600080fd5b5061043e6108c1366004614727565b6122db565b3480156108d257600080fd5b506103906108e13660046142ed565b6124f7565b61043e6108f43660046142ed565b61251e565b34801561090557600080fd5b506103d96109143660046142ed565b612972565b34801561092557600080fd5b50610390612ae9565b34801561093a57600080fd5b5061043e612bd0565b34801561094f57600080fd5b506103b661095e3660046142ed565b612c00565b34801561096f57600080fd5b5061043e61097e3660046142ed565b612c9c565b61043e6109913660046142ed565b612db0565b3480156109a257600080fd5b506103906109b1366004614749565b6001600160a01b03918216600090815260056020908152604080832093909416825291909152205460ff1690565b3480156109eb57600080fd5b506104786132d9565b348015610a0057600080fd5b50600e546103b6565b348015610a1557600080fd5b506103b6610a243660046142ed565b600090815260116020908152604080832033845290915290205490565b60006001600160e01b031982166380ac58cd60e01b1480610a7257506001600160e01b03198216635b5e139f60e01b145b80610a8d57506301ffc9a760e01b6001600160e01b03198316145b92915050565b606060008054610aa290614773565b80601f0160208091040260200160405190810160405280929190818152602001828054610ace90614773565b8015610b1b5780601f10610af057610100808354040283529160200191610b1b565b820191906000526020600020905b815481529060010190602001808311610afe57829003601f168201915b5050505050905090565b6000610b30826134d7565b610b965760405162461bcd60e51b815260206004820152602c60248201527f4552433732313a20617070726f76656420717565727920666f72206e6f6e657860448201526b34b9ba32b73a103a37b5b2b760a11b60648201526084015b60405180910390fd5b506000908152600460205260409020546001600160a01b031690565b6000610bbd82611880565b9050806001600160a01b0316836001600160a01b03161415610c2b5760405162461bcd60e51b815260206004820152602160248201527f4552433732313a20617070726f76616c20746f2063757272656e74206f776e656044820152603960f91b6064820152608401610b8d565b336001600160a01b0382161480610c475750610c4781336109b1565b610cb95760405162461bcd60e51b815260206004820152603860248201527f4552433732313a20617070726f76652063616c6c6572206973206e6f74206f7760448201527f6e6572206e6f7220617070726f76656420666f7220616c6c00000000000000006064820152608401610b8d565b610cc383836134f4565b505050565b60606000610cd560085490565b90506000610ce260095490565b600854610cef91906147c4565b90506000808267ffffffffffffffff811115610d0d57610d0d6144b4565b604051908082528060200260200182016040528015610d4657816020015b610d3361415a565b815260200190600190039081610d2b5790505b50905060005b84811015610e7f573060106000610d648460016147db565b81526020810191909152604001600020600301546001600160a01b03161415610e6d576000610d948260016147db565b6000818152601060209081526040918290208251610160810184528154815260018201546001600160a01b0390811693820193909352600282015483169381019390935260038101548216606084015260048101546080840152600581015460ff908116151560a0850152600682015460c0850152600782015460e085015260088201541615156101008401526009810154610120840152600a810154909116610140830152855192935091859087908110610e5257610e526147f3565b6020908102919091010152610e686001866147db565b945050505b80610e7781614809565b915050610d4c565b50949350505050565b600080610e9460095490565b600854610a8d91906147c4565b60606000610eae60085490565b905060008060005b83811015610f11573360106000610ece8460016147db565b81526020810191909152604001600020600301546001600160a01b03161415610eff57610efc6001846147db565b92505b80610f0981614809565b915050610eb6565b5060008267ffffffffffffffff811115610f2d57610f2d6144b4565b604051908082528060200260200182016040528015610f6657816020015b610f5361415a565b815260200190600190039081610f4b5790505b50905060005b84811015610e7f573360106000610f848460016147db565b81526020810191909152604001600020600301546001600160a01b0316141561108d576000610fb48260016147db565b6000818152601060209081526040918290208251610160810184528154815260018201546001600160a01b0390811693820193909352600282015483169381019390935260038101548216606084015260048101546080840152600581015460ff908116151560a0850152600682015460c0850152600782015460e085015260088201541615156101008401526009810154610120840152600a810154909116610140830152855192935091859087908110611072576110726147f3565b60209081029190910101526110886001866147db565b945050505b8061109781614809565b915050610f6c565b6110a93382613562565b6110c55760405162461bcd60e51b8152600401610b8d90614824565b610cc3838383613648565b60008181526010602052604090206002015481906001600160a01b0316331415611132576000818152601060205260409020600201546001600160a01b0316331461112d5760405162461bcd60e51b8152600401610b8d90614875565b611173565b600f5460008281526010602052604090206007015461115190436147c4565b111561117357600a5461010090046001600160a01b0316331461117357600080fd5b506000908152601060205260409020600801805460ff19169055565b60008181526010602052604081206009810154600a8201546002830154600184015460069094015492936001600160a01b03928316939183169216908590612710906111db90876148bd565b6111e591906148f2565b90506000612710600e54876111fa91906148bd565b61120491906148f2565b905060008161121384896147c4565b61121d91906147c4565b509098975050505050505050565b600a5461010090046001600160a01b0316331461124757600080fd5b6000600c541161125657600080fd5b600b54600c546040516001600160a01b039092169181156108fc0291906000818181858888f19350505050158015611292573d6000803e3d6000fd5b50565b600a5460609061010090046001600160a01b031633146112b457600080fd5b60408051600580825260c08201909252600091829190816020015b6112d761415a565b8152602001906001900390816112cf57905050905060005b60058110156114235760006010816113088460016147db565b81526020810191909152604001600020600101546001600160a01b031614156114115760006113388260016147db565b6000818152601060209081526040918290208251610160810184528154815260018201546001600160a01b0390811693820193909352600282015483169381019390935260038101548216606084015260048101546080840152600581015460ff908116151560a0850152600682015460c0850152600782015460e085015260088201541615156101008401526009810154610120840152600a8101549091166101408301528551929350918590879081106113f6576113f66147f3565b602090810291909101015261140c6001866147db565b945050505b8061141b81614809565b9150506112ef565b5091505090565b610cc3838383604051806020016040528060008152506122a3565b600260075414156114685760405162461bcd60e51b8152600401610b8d90614906565b60026007556000848152601060205260409020600301546001600160a01b031633146114e95760405162461bcd60e51b815260206004820152602a60248201527f4f6e6c79206974656d206f776e65722063616e20706572666f726d20746869736044820152691037b832b930ba34b7b760b11b6064820152608401610b8d565b600183116115455760405162461bcd60e51b8152602060048201526024808201527f427579204e6f77205072696365206d757374206265206174206c6561737420316044820152632077656960e01b6064820152608401610b8d565b600182116115a15760405162461bcd60e51b8152602060048201526024808201527f41756374696f6e205072696365206d757374206265206174206c6561737420316044820152632077656960e01b6064820152608401610b8d565b600d5434146115c25760405162461bcd60e51b8152600401610b8d9061493d565b600084815260106020526040902060058101805460ff1990811690915560048201859055600282018054336001600160a01b0319918216179091556003830180543090831617905560088301805490921684151517909155426007830155600a820180549091169055600990810183905561163c906137e8565b611647333086613648565b505060016007555050565b600a5461010090046001600160a01b0316331461166e57600080fd5b600f55565b600a5461010090046001600160a01b0316331461168f57600080fd5b600b80546001600160a01b0319166001600160a01b0392909216919091179055565b8060005b815181101561175e5760008282815181106116d2576116d26147f3565b602090810291909101810151600081815260109092526040909120600201549091506001600160a01b0316331461174b5760405162461bcd60e51b815260206004820152601d60248201527f4e4654206f776e657220706572666f726d207468697320616374696f6e0000006044820152606401610b8d565b508061175681614809565b9150506116b5565b50600260075414156117825760405162461bcd60e51b8152600401610b8d90614906565b600260075560005b82518110156118765760008382815181106117a7576117a76147f3565b602090810291909101810151600081815260109092526040909120600301549091506001600160a01b03163314156117fd57600081815260106020526040902060010180546001600160a01b0319169055611863565b6000818152601060205260409020600101546001600160a01b03163314801561183e57506000818152601060205260409020600301546001600160a01b0316155b1561186357600081815260106020526040902060010180546001600160a01b03191690555b508061186e81614809565b91505061178a565b5050600160075550565b6000818152600260205260408120546001600160a01b031680610a8d5760405162461bcd60e51b815260206004820152602960248201527f4552433732313a206f776e657220717565727920666f72206e6f6e657869737460448201526832b73a103a37b5b2b760b91b6064820152608401610b8d565b60006001600160a01b0382166119625760405162461bcd60e51b815260206004820152602a60248201527f4552433732313a2062616c616e636520717565727920666f7220746865207a65604482015269726f206164647265737360b01b6064820152608401610b8d565b506001600160a01b031660009081526003602052604090205490565b600a5460009061010090046001600160a01b0316331461199d57600080fd5b50600c5490565b600a5460009061010090046001600160a01b031633146119c357600080fd5b504790565b60008181526010602052604081206009810154600a8201546002830154600184015460069094015492936001600160a01b0392831693918316921690859061271090611a1490876148bd565b611a1e91906148f2565b90506000612710600e5487611a3391906148bd565b611a3d91906148f2565b9050600081611a4c84896147c4565b611a5691906147c4565b9998505050505050505050565b60606000611a7060085490565b6000848152601060205260408120600281015492935090918291906001600160a01b0316825b85811015611b26576001600160a01b03821660106000611ab78460016147db565b81526020810191909152604001600020600201546001600160a01b0316148015611b0157508760106000611aec8460016147db565b81526020019081526020016000206000015414155b15611b1457611b116001866147db565b94505b80611b1e81614809565b915050611a96565b5060008467ffffffffffffffff811115611b4257611b426144b4565b604051908082528060200260200182016040528015611b7b57816020015b611b6861415a565b815260200190600190039081611b605790505b50905060005b86811015611ce9576001600160a01b03831660106000611ba28460016147db565b81526020810191909152604001600020600201546001600160a01b0316148015611bec57508860106000611bd78460016147db565b81526020019081526020016000206000015414155b15611cd7576000611bfe8260016147db565b6000818152601060209081526040918290208251610160810184528154815260018201546001600160a01b0390811693820193909352600282015483169381019390935260038101548216606084015260048101546080840152600581015460ff908116151560a0850152600682015460c0850152600782015460e085015260088201541615156101008401526009810154610120840152600a810154909116610140830152855192935091859089908110611cbc57611cbc6147f3565b6020908102919091010152611cd26001886147db565b965050505b80611ce181614809565b915050611b81565b50979650505050505050565b600a5461010090046001600160a01b03163314611d1157600080fd5b600e55565b600a5461010090046001600160a01b03163314611d3257600080fd5b600d55565b600a5460009060ff161515600114611d4e57600080fd5b611d5c600880546001019055565b6000611d6760085490565b9050611d73338261383f565b611d7d8188613972565b611d8a81878787876139fd565b9695505050505050565b60606000611da160085490565b905060008060005b83811015611e12576000601081611dc18460016147db565b8152602080820192909252604090810160009081205480825260118452828220338352909352205490915015611dff57611dfc6001856147db565b93505b5080611e0a81614809565b915050611da9565b5060008267ffffffffffffffff811115611e2e57611e2e6144b4565b604051908082528060200260200182016040528015611e6757816020015b611e5461415a565b815260200190600190039081611e4c5790505b50905060005b84811015610e7f576000601081611e858460016147db565b8152602080820192909252604090810160009081205480825260118452828220338352909352205490915015611f9b576000611ec28360016147db565b6000818152601060209081526040918290208251610160810184528154815260018201546001600160a01b0390811693820193909352600282015483169381019390935260038101548216606084015260048101546080840152600581015460ff908116151560a0850152600682015460c0850152600782015460e085015260088201541615156101008401526009810154610120840152600a810154909116610140830152865192935091869088908110611f8057611f806147f3565b6020908102919091010152611f966001876147db565b955050505b5080611fa681614809565b915050611e6d565b606060018054610aa290614773565b600080610a8d60085490565b60008181526010602052604090206002015481906001600160a01b03163314156120055760405162461bcd60e51b8152600401610b8d90614981565b600a54829061010090046001600160a01b03163314156120775760405162461bcd60e51b815260206004820152602760248201527f4d61726b6574206f776e65722063616e6e6f7420706572666f726d20746869736044820152661030b1ba34b7b760c91b6064820152608401610b8d565b6002600754141561209a5760405162461bcd60e51b8152600401610b8d90614906565b6002600755600a5460ff1615156001146120b357600080fd5b60643410156121045760405162461bcd60e51b815260206004820152601e60248201527f426964206d757374206265206174206c656173742061203130302077656900006044820152606401610b8d565b60008381526011602090815260408083203384529091528120546121299034906147db565b600085815260106020526040902060090154909150811161214957600080fd5b600084815260116020908152604080832033808552908352818420859055968352601090915290206009810191909155600a0180546001600160a01b03191690931790925550506001600755565b6121a2338383613d84565b5050565b600081815260106020526040808220815160018082528184019093526060939192816020015b6121d461415a565b8152602001906001900390816121cc57505060408051610160810182528454815260018501546001600160a01b039081166020830152600286015481169282019290925260038501548216606082015260048501546080820152600585015460ff908116151560a0830152600686015460c0830152600786015460e083015260088601541615156101008201526009850154610120820152600a8501549091166101408201528151919250908290600090612291576122916147f3565b60209081029190910101529392505050565b6122ad3383613562565b6122c95760405162461bcd60e51b8152600401610b8d90614824565b6122d584848484613e53565b50505050565b60008281526010602052604090206002015482906001600160a01b031633141561233d576000818152601060205260409020600201546001600160a01b031633146123385760405162461bcd60e51b8152600401610b8d90614875565b61237e565b600f5460008281526010602052604090206007015461235c90436147c4565b111561237e57600a5461010090046001600160a01b0316331461237e57600080fd5b60008381526010602052604081206002810154600182015460098301546006909301546001600160a01b039283169391909216918490612710906123c290846148bd565b6123cc91906148f2565b90506000612710600e54846123e191906148bd565b6123eb91906148f2565b90506000816123fa84866147c4565b61240491906147c4565b9050886001141561244e576040516001600160a01b0386169084156108fc029085906000818181858888f19350505050158015612445573d6000803e3d6000fd5b508296506124eb565b886002141561249f576001600160a01b0386166108fc61246e85846147db565b6040518115909202916000818181858888f19350505050158015612496573d6000803e3d6000fd5b508096506124eb565b88600314156124eb57600a546040516101009091046001600160a01b0316906108fc8415029084906000818181858888f193505050501580156124e6573d6000803e3d6000fd5b508196505b50505050505050505050565b6000818152601060205260408120600701546125148160786147db565b4210159392505050565b60008181526010602052604090206002015481906001600160a01b031633141561255a5760405162461bcd60e51b8152600401610b8d90614981565b6002600754141561257d5760405162461bcd60e51b8152600401610b8d90614906565b6002600755600a5460ff16151560011461259657600080fd5b60008281526010602052604090206008015460ff16156125c85760405162461bcd60e51b8152600401610b8d906149c7565b600082815260106020526040902060040154348114612651576040805162461bcd60e51b81526020600482015260248101919091527f506c65617365207375626d6974207468652061736b696e67207072696365206960448201527f6e206f7264657220746f20636f6d706c657465207468652070757263686173656064820152608401610b8d565b6000838152601060205260409020600101546001600160a01b03166126885760405162461bcd60e51b8152600401610b8d90614a1c565b6000838152601060205260409020600281018054600180840180546001600160a01b0319808516909555938416905560058401805460ff199081169092179055600890930180549093169092556001600160a01b0391821691166126f0600980546001019055565b6000858152601060205260408120600601546127109061271090866148bd565b61271a91906148f2565b90506000612710600e548661272f91906148bd565b61273991906148f2565b905060008161274884886147c4565b61275291906147c4565b600089815260106020526040902060018101546002909101549192506001600160a01b039182169116141561281f576001600160a01b0385166108fc61279885846147db565b6040518115909202916000818181858888f193505050501580156127c0573d6000803e3d6000fd5b50600a60019054906101000a90046001600160a01b03166001600160a01b03166108fc83600d546127f191906147db565b6040518115909202916000818181858888f19350505050158015612819573d6000803e3d6000fd5b506128e7565b6040516001600160a01b0386169082156108fc029083906000818181858888f19350505050158015612855573d6000803e3d6000fd5b506040516001600160a01b0385169084156108fc029085906000818181858888f1935050505015801561288c573d6000803e3d6000fd5b50600a60019054906101000a90046001600160a01b03166001600160a01b03166108fc83600d546128bd91906147db565b6040518115909202916000818181858888f193505050501580156128e5573d6000803e3d6000fd5b505b81600d546128f591906147db565b600c5461290291906147db565b600c55600088815260106020526040902060030180546001600160a01b031916339081179091556129359030908a613648565b505050600094855260106020526040909420600190810180546001600160a01b0319166001600160a01b0390961695909517909455505050600755565b606061297d826134d7565b6129e35760405162461bcd60e51b815260206004820152603160248201527f45524337323155524953746f726167653a2055524920717565727920666f72206044820152703737b732bc34b9ba32b73a103a37b5b2b760791b6064820152608401610b8d565b600082815260066020526040812080546129fc90614773565b80601f0160208091040260200160405190810160405280929190818152602001828054612a2890614773565b8015612a755780601f10612a4a57610100808354040283529160200191612a75565b820191906000526020600020905b815481529060010190602001808311612a5857829003601f168201915b505050505090506000612a9360408051602081019091526000815290565b9050805160001415612aa6575092915050565b815115612ad8578082604051602001612ac0929190614a66565b60405160208183030381529060405292505050919050565b612ae184613e86565b949350505050565b600a5460009061010090046001600160a01b03163314612b0857600080fd5b60026007541415612b2b5760405162461bcd60e51b8152600401610b8d90614906565b60026007556000612b3b60085490565b905060005b81811015612bc257600f544260106000612b5b8560016147db565b815260200190815260200160002060070154612b7791906147c4565b1115612bb0576000601081612b8d8460016147db565b81526020810191909152604001600020600801805460ff19169115159190911790555b80612bba81614809565b915050612b40565b506001915050600160075590565b600a5461010090046001600160a01b03163314612bec57600080fd5b600a805460ff19811660ff90911615179055565b60008181526010602052604081206009810154600a8201546002830154600184015460069094015492936001600160a01b0392831693918316921690859061271090612c4c90876148bd565b612c5691906148f2565b90506000612710600e5487612c6b91906148bd565b612c7591906148f2565b9050600081612c8484896147c4565b612c8e91906147c4565b509198975050505050505050565b60026007541415612cbf5760405162461bcd60e51b8152600401610b8d90614906565b60026007556000818152601060205260409020600a01546001600160a01b0316331415612d3f5760405162461bcd60e51b815260206004820152602860248201527f48696768657374206269646465722063616e6e6f7420776974686472617720746044820152671a195a5c88189a5960c21b6064820152608401610b8d565b6000818152601160209081526040808320338452909152902054612d6257600080fd5b600081815260116020908152604080832033808552925280832080549084905590519192909183916108fc841502918491818181858888f19350505050158015611647573d6000803e3d6000fd5b60008181526010602052604090206002015481906001600160a01b0316331415612e12576000818152601060205260409020600201546001600160a01b03163314612e0d5760405162461bcd60e51b8152600401610b8d90614875565b612e53565b600f54600082815260106020526040902060070154612e3190436147c4565b1115612e5357600a5461010090046001600160a01b03163314612e5357600080fd5b60026007541415612e765760405162461bcd60e51b8152600401610b8d90614906565b6002600755600a5460ff161515600114612e8f57600080fd5b60008281526010602052604090206008015460ff1615612ec15760405162461bcd60e51b8152600401610b8d906149c7565b6000828152601060205260409020600101546001600160a01b0316612ef85760405162461bcd60e51b8152600401610b8d90614a1c565b60008281526010602052604090206009810154600a909101546001600160a01b031680612f675760405162461bcd60e51b815260206004820152601f60248201527f54686973204e465420646f6573206e6f742068617665206120626964646572006044820152606401610b8d565b6000848152601060205260409020600201546001600160a01b0382811691161415612fd45760405162461bcd60e51b815260206004820152601f60248201527f54686973204e465420646f6573206e6f742068617665206120626964646572006044820152606401610b8d565b600084815260106020526040902060028101805460018084018054600a860180546001600160a01b0319908116909155808516909555938416905560058401805460ff199081169092179055600890930180549093169092556001600160a01b039182169116613048600980546001019055565b6000868152601060205260408120600601546127109061306890876148bd565b61307291906148f2565b90506000612710600e548761308791906148bd565b61309191906148f2565b90506000816130a084896147c4565b6130aa91906147c4565b905060006130b882856147db565b60008b815260106020526040902060018101546002909101549192506001600160a01b039182169116141561317c57600a60019054906101000a90046001600160a01b03166001600160a01b03166108fc84600d5461311791906147db565b6040518115909202916000818181858888f1935050505015801561313f573d6000803e3d6000fd5b506040516001600160a01b0387169082156108fc029083906000818181858888f19350505050158015613176573d6000803e3d6000fd5b50613244565b600a60019054906101000a90046001600160a01b03166001600160a01b03166108fc84600d546131ac91906147db565b6040518115909202916000818181858888f193505050501580156131d4573d6000803e3d6000fd5b506040516001600160a01b0386169085156108fc029086906000818181858888f1935050505015801561320b573d6000803e3d6000fd5b506040516001600160a01b0387169083156108fc029084906000818181858888f19350505050158015613242573d6000803e3d6000fd5b505b82600d5461325291906147db565b600c5461325f91906147db565b600c5560008a815260106020526040902060030180546001600160a01b0319166001600160a01b03891617905561329730338c613648565b50505060009687525060106020526040909520600190810180546001600160a01b0319166001600160a01b039097169690961790955550505060079190915550565b606060006132e660085490565b905060008060005b838110156133495733601060006133068460016147db565b81526020810191909152604001600020600201546001600160a01b03161415613337576133346001846147db565b92505b8061334181614809565b9150506132ee565b5060008267ffffffffffffffff811115613365576133656144b4565b60405190808252806020026020018201604052801561339e57816020015b61338b61415a565b8152602001906001900390816133835790505b50905060005b84811015610e7f5733601060006133bc8460016147db565b81526020810191909152604001600020600201546001600160a01b031614156134c55760006133ec8260016147db565b6000818152601060209081526040918290208251610160810184528154815260018201546001600160a01b0390811693820193909352600282015483169381019390935260038101548216606084015260048101546080840152600581015460ff908116151560a0850152600682015460c0850152600782015460e085015260088201541615156101008401526009810154610120840152600a8101549091166101408301528551929350918590879081106134aa576134aa6147f3565b60209081029190910101526134c06001866147db565b945050505b806134cf81614809565b9150506133a4565b6000908152600260205260409020546001600160a01b0316151590565b600081815260046020526040902080546001600160a01b0319166001600160a01b038416908117909155819061352982611880565b6001600160a01b03167f8c5be1e5ebec7d5bd14f71427d1e84f3dd0314c0f7b2291e5b200ac8c7c3b92560405160405180910390a45050565b600061356d826134d7565b6135ce5760405162461bcd60e51b815260206004820152602c60248201527f4552433732313a206f70657261746f7220717565727920666f72206e6f6e657860448201526b34b9ba32b73a103a37b5b2b760a11b6064820152608401610b8d565b60006135d983611880565b9050806001600160a01b0316846001600160a01b031614806136145750836001600160a01b031661360984610b25565b6001600160a01b0316145b80612ae157506001600160a01b0380821660009081526005602090815260408083209388168352929052205460ff16612ae1565b826001600160a01b031661365b82611880565b6001600160a01b0316146136c35760405162461bcd60e51b815260206004820152602960248201527f4552433732313a207472616e73666572206f6620746f6b656e2074686174206960448201526839903737ba1037bbb760b91b6064820152608401610b8d565b6001600160a01b0382166137255760405162461bcd60e51b8152602060048201526024808201527f4552433732313a207472616e7366657220746f20746865207a65726f206164646044820152637265737360e01b6064820152608401610b8d565b6137306000826134f4565b6001600160a01b03831660009081526003602052604081208054600192906137599084906147c4565b90915550506001600160a01b03821660009081526003602052604081208054600192906137879084906147db565b909155505060008181526002602052604080822080546001600160a01b0319166001600160a01b0386811691821790925591518493918716917fddf252ad1be2c89b69c2b068fc378daa952ba7f163c4a11628f55a4df523b3ef91a4505050565b8054806138375760405162461bcd60e51b815260206004820152601b60248201527f436f756e7465723a2064656372656d656e74206f766572666c6f7700000000006044820152606401610b8d565b600019019055565b6001600160a01b0382166138955760405162461bcd60e51b815260206004820181905260248201527f4552433732313a206d696e7420746f20746865207a65726f20616464726573736044820152606401610b8d565b61389e816134d7565b156138eb5760405162461bcd60e51b815260206004820152601c60248201527f4552433732313a20746f6b656e20616c7265616479206d696e746564000000006044820152606401610b8d565b6001600160a01b03821660009081526003602052604081208054600192906139149084906147db565b909155505060008181526002602052604080822080546001600160a01b0319166001600160a01b03861690811790915590518392907fddf252ad1be2c89b69c2b068fc378daa952ba7f163c4a11628f55a4df523b3ef908290a45050565b61397b826134d7565b6139de5760405162461bcd60e51b815260206004820152602e60248201527f45524337323155524953746f726167653a2055524920736574206f66206e6f6e60448201526d32bc34b9ba32b73a103a37b5b2b760911b6064820152608401610b8d565b60008281526006602090815260409091208251610cc3928401906141b6565b6127108411613a5f5760405162461bcd60e51b815260206004820152602860248201527f427579204e6f77205072696365206d757374206265206174206c656173742031604482015267303030302077656960c01b6064820152608401610b8d565b6127108211613ac15760405162461bcd60e51b815260206004820152602860248201527f41756374696f6e205072696365206d757374206265206174206c656173742031604482015267303030302077656960c01b6064820152608401610b8d565b6103e98310613b215760405162461bcd60e51b815260206004820152602660248201527f526f79616c74792063616e6e6f74206265206d6f7265207468616e2031302070604482015265195c98d95b9d60d21b6064820152608401610b8d565b600d543414613b425760405162461bcd60e51b8152600401610b8d9061493d565b6000429050604051806101600160405280878152602001336001600160a01b03168152602001336001600160a01b03168152602001306001600160a01b031681526020018681526020016000151581526020018581526020018281526020018315158152602001848152602001336001600160a01b0316815250601060008881526020019081526020016000206000820151816000015560208201518160010160006101000a8154816001600160a01b0302191690836001600160a01b0316021790555060408201518160020160006101000a8154816001600160a01b0302191690836001600160a01b0316021790555060608201518160030160006101000a8154816001600160a01b0302191690836001600160a01b031602179055506080820151816004015560a08201518160050160006101000a81548160ff02191690831515021790555060c0820151816006015560e082015181600701556101008201518160080160006101000a81548160ff021916908315150217905550610120820151816009015561014082015181600a0160006101000a8154816001600160a01b0302191690836001600160a01b03160217905550905050613d06333088613648565b6040805133808252602082018190523082840152606082018890526000608083015260a0820187905260c0820184905284151560e08301526101008201869052610120820152905187917f8658d71b8c609be20198e5205ba005126c08b393a8e4fe1e562b81cd27555a8591908190036101400190a2505050505050565b816001600160a01b0316836001600160a01b03161415613de65760405162461bcd60e51b815260206004820152601960248201527f4552433732313a20617070726f766520746f2063616c6c6572000000000000006044820152606401610b8d565b6001600160a01b03838116600081815260056020908152604080832094871680845294825291829020805460ff191686151590811790915591519182527f17307eab39ab6107e8899845ad3d59bd9653f200f220920489ca2b5937696c31910160405180910390a3505050565b613e5e848484613648565b613e6a84848484613f5e565b6122d55760405162461bcd60e51b8152600401610b8d90614a95565b6060613e91826134d7565b613ef55760405162461bcd60e51b815260206004820152602f60248201527f4552433732314d657461646174613a2055524920717565727920666f72206e6f60448201526e3732bc34b9ba32b73a103a37b5b2b760891b6064820152608401610b8d565b6000613f0c60408051602081019091526000815290565b90506000815111613f2c5760405180602001604052806000815250613f57565b80613f368461405c565b604051602001613f47929190614a66565b6040516020818303038152906040525b9392505050565b60006001600160a01b0384163b1561405157604051630a85bd0160e11b81526001600160a01b0385169063150b7a0290613fa2903390899088908890600401614ae7565b6020604051808303816000875af1925050508015613fdd575060408051601f3d908101601f19168201909252613fda91810190614b1a565b60015b614037573d80801561400b576040519150601f19603f3d011682016040523d82523d6000602084013e614010565b606091505b50805161402f5760405162461bcd60e51b8152600401610b8d90614a95565b805181602001fd5b6001600160e01b031916630a85bd0160e11b149050612ae1565b506001949350505050565b6060816140805750506040805180820190915260018152600360fc1b602082015290565b8160005b81156140aa578061409481614809565b91506140a39050600a836148f2565b9150614084565b60008167ffffffffffffffff8111156140c5576140c56144b4565b6040519080825280601f01601f1916602001820160405280156140ef576020820181803683370190505b5090505b8415612ae1576141046001836147c4565b9150614111600a86614b37565b61411c9060306147db565b60f81b818381518110614131576141316147f3565b60200101906001600160f81b031916908160001a905350614153600a866148f2565b94506140f3565b6040805161016081018252600080825260208201819052918101829052606081018290526080810182905260a0810182905260c0810182905260e081018290526101008101829052610120810182905261014081019190915290565b8280546141c290614773565b90600052602060002090601f0160209004810192826141e4576000855561422a565b82601f106141fd57805160ff191683800117855561422a565b8280016001018555821561422a579182015b8281111561422a57825182559160200191906001019061420f565b5061423692915061423a565b5090565b5b80821115614236576000815560010161423b565b6001600160e01b03198116811461129257600080fd5b60006020828403121561427757600080fd5b8135613f578161424f565b60005b8381101561429d578181015183820152602001614285565b838111156122d55750506000910152565b600081518084526142c6816020860160208601614282565b601f01601f19169290920160200192915050565b602081526000613f5760208301846142ae565b6000602082840312156142ff57600080fd5b5035919050565b80356001600160a01b038116811461431d57600080fd5b919050565b6000806040838503121561433557600080fd5b61433e83614306565b946020939093013593505050565b602080825282518282018190526000919060409081850190868401855b8281101561440157815180518552868101516001600160a01b0390811688870152868201518116878701526060808301518216908701526080808301519087015260a08083015115159087015260c0808301519087015260e080830151908701526101008083015115159087015261012080830151908701526101409182015116908501526101609093019290850190600101614369565b5091979650505050505050565b60008060006060848603121561442357600080fd5b61442c84614306565b925061443a60208501614306565b9150604084013590509250925092565b8035801515811461431d57600080fd5b6000806000806080858703121561447057600080fd5b84359350602085013592506040850135915061448e6060860161444a565b905092959194509250565b6000602082840312156144ab57600080fd5b613f5782614306565b634e487b7160e01b600052604160045260246000fd5b604051601f8201601f1916810167ffffffffffffffff811182821017156144f3576144f36144b4565b604052919050565b6000602080838503121561450e57600080fd5b823567ffffffffffffffff8082111561452657600080fd5b818501915085601f83011261453a57600080fd5b81358181111561454c5761454c6144b4565b8060051b915061455d8483016144ca565b818152918301840191848101908884111561457757600080fd5b938501935b838510156145955784358252938501939085019061457c565b98975050505050505050565b600067ffffffffffffffff8311156145bb576145bb6144b4565b6145ce601f8401601f19166020016144ca565b90508281528383830111156145e257600080fd5b828260208301376000602084830101529392505050565b600080600080600060a0868803121561461157600080fd5b853567ffffffffffffffff81111561462857600080fd5b8601601f8101881361463957600080fd5b614648888235602084016145a1565b95505060208601359350604086013592506060860135915061466c6080870161444a565b90509295509295909350565b6000806040838503121561468b57600080fd5b61469483614306565b91506146a26020840161444a565b90509250929050565b600080600080608085870312156146c157600080fd5b6146ca85614306565b93506146d860208601614306565b925060408501359150606085013567ffffffffffffffff8111156146fb57600080fd5b8501601f8101871361470c57600080fd5b61471b878235602084016145a1565b91505092959194509250565b6000806040838503121561473a57600080fd5b50508035926020909101359150565b6000806040838503121561475c57600080fd5b61476583614306565b91506146a260208401614306565b600181811c9082168061478757607f821691505b602082108114156147a857634e487b7160e01b600052602260045260246000fd5b50919050565b634e487b7160e01b600052601160045260246000fd5b6000828210156147d6576147d66147ae565b500390565b600082198211156147ee576147ee6147ae565b500190565b634e487b7160e01b600052603260045260246000fd5b600060001982141561481d5761481d6147ae565b5060010190565b60208082526031908201527f4552433732313a207472616e736665722063616c6c6572206973206e6f74206f6040820152701ddb995c881b9bdc88185c1c1c9bdd9959607a1b606082015260800190565b60208082526028908201527f4f6e6c79204e46542063726561746f722063616e20706572666f726d20746869604082015267399030b1ba34b7b760c11b606082015260800190565b60008160001904831182151516156148d7576148d76147ae565b500290565b634e487b7160e01b600052601260045260246000fd5b600082614901576149016148dc565b500490565b6020808252601f908201527f5265656e7472616e637947756172643a207265656e7472616e742063616c6c00604082015260600190565b60208082526024908201527f5072696365206d75737420626520657175616c20746f206c697374696e6720706040820152637269636560e01b606082015260800190565b60208082526026908201527f4e46542063726561746f722063616e6e6f7420706572666f726d20746869732060408201526530b1ba34b7b760d11b606082015260800190565b60208082526035908201527f54686973204e465420697320696e20616e2041756374696f6e2e20506c65617360408201527419481c1b1858d9481848189a59081a5b9cdd195859605a1b606082015260800190565b6020808252602a908201527f5468697320697320612063616e63656c6c6564206974656d2c206e6f7420666f6040820152697220707572636861736560b01b606082015260800190565b60008351614a78818460208801614282565b835190830190614a8c818360208801614282565b01949350505050565b60208082526032908201527f4552433732313a207472616e7366657220746f206e6f6e20455243373231526560408201527131b2b4bb32b91034b6b83632b6b2b73a32b960711b606082015260800190565b6001600160a01b0385811682528416602082015260408101839052608060608201819052600090611d8a908301846142ae565b600060208284031215614b2c57600080fd5b8151613f578161424f565b600082614b4657614b466148dc565b50069056fea2646970667358221220fd917b0e91fc2d47e5730deac9c3a127a8b1e66d678d42c18157cc86a502d07464736f6c634300080a0033",
  "linkReferences": {},
  "deployedLinkReferences": {}
}